{
  "contractName": "Lockbox",
  "abi": [
    {
      "anonymous": false,
      "inputs": [
        {
          "indexed": false,
          "name": "_address",
          "type": "address"
        },
        {
          "indexed": false,
          "name": "_valid_until",
          "type": "uint64"
        }
      ],
      "name": "ExpiredSharedSecret",
      "type": "event"
    },
    {
      "constant": false,
      "inputs": [
        {
          "name": "_address",
          "type": "address"
        },
        {
          "name": "_shared_secret",
          "type": "uint256"
        }
      ],
      "name": "assign_shared_secret",
      "outputs": [],
      "payable": false,
      "stateMutability": "nonpayable",
      "type": "function"
    },
    {
      "constant": false,
      "inputs": [
        {
          "name": "_address",
          "type": "address"
        }
      ],
      "name": "get_shared_secret",
      "outputs": [
        {
          "name": "",
          "type": "uint256"
        }
      ],
      "payable": false,
      "stateMutability": "nonpayable",
      "type": "function"
    },
    {
      "constant": true,
      "inputs": [
        {
          "name": "_address",
          "type": "address"
        }
      ],
      "name": "get_validity_period",
      "outputs": [
        {
          "name": "",
          "type": "uint64"
        }
      ],
      "payable": false,
      "stateMutability": "view",
      "type": "function"
    }
  ],
  "bytecode": "0x60806040526202a30060005534801561001757600080fd5b506103e2806100276000396000f300608060405260043610610057576000357c0100000000000000000000000000000000000000000000000000000000900463ffffffff1680635c4893ec1461005c578063ad11d077146100c7578063f7e99d4814610114575b600080fd5b34801561006857600080fd5b5061009d600480360381019080803573ffffffffffffffffffffffffffffffffffffffff16906020019092919050505061016b565b604051808267ffffffffffffffff1667ffffffffffffffff16815260200191505060405180910390f35b3480156100d357600080fd5b50610112600480360381019080803573ffffffffffffffffffffffffffffffffffffffff169060200190929190803590602001909291905050506101c8565b005b34801561012057600080fd5b50610155600480360381019080803573ffffffffffffffffffffffffffffffffffffffff16906020019092919050505061027a565b6040518082815260200191505060405180910390f35b6000600260008373ffffffffffffffffffffffffffffffffffffffff1673ffffffffffffffffffffffffffffffffffffffff16815260200190815260200160002060009054906101000a900467ffffffffffffffff169050919050565b80600160008473ffffffffffffffffffffffffffffffffffffffff1673ffffffffffffffffffffffffffffffffffffffff168152602001908152602001600020819055506000544201600260008473ffffffffffffffffffffffffffffffffffffffff1673ffffffffffffffffffffffffffffffffffffffff16815260200190815260200160002060006101000a81548167ffffffffffffffff021916908367ffffffffffffffff1602179055505050565b600080600260008473ffffffffffffffffffffffffffffffffffffffff1673ffffffffffffffffffffffffffffffffffffffff16815260200190815260200160002060009054906101000a900467ffffffffffffffff169050428167ffffffffffffffff16101561036d577fcfbf7ae5abb0eb9c838cbb4f9dc9a529bef16623483b56d79d5eec1de9bcff2e8382604051808373ffffffffffffffffffffffffffffffffffffffff1673ffffffffffffffffffffffffffffffffffffffff1681526020018267ffffffffffffffff1667ffffffffffffffff1681526020019250505060405180910390a1600091506103b0565b600160008473ffffffffffffffffffffffffffffffffffffffff1673ffffffffffffffffffffffffffffffffffffffff1681526020019081526020016000205491505b509190505600a165627a7a723058205795fd707444aeaccbbb3130951cae62a26c8eeaa999a9293a164c45650675440029",
  "source": "pragma solidity ^0.4.24;\n\ncontract Lockbox {\n  event ExpiredSharedSecret(address _address, uint64 _valid_until);\n\n  uint validity_period = 2 days;\n\n  mapping ( address => uint256 ) shared_secrets;\n  mapping ( address => uint64 ) valid_until;\n\n\n  function assign_shared_secret(address _address, uint256 _shared_secret) external {\n    shared_secrets[_address] = _shared_secret;\n    valid_until[_address] = uint64(now + validity_period);\n  }\n\n  function get_shared_secret(address _address) external returns(uint256) {\n    uint64 validity = valid_until[_address];\n    if (validity < now) {\n      emit ExpiredSharedSecret(_address, validity);\n      return 0;\n    }\n\n    return shared_secrets[_address];\n  }\n\n  function get_validity_period(address _address) external view returns(uint64){\n    return valid_until[_address];\n  }\n\n\n}",
  "sourcePath": "/Users/gbudiman/Documents/lockbox/contracts/Lockbox.sol",
  "compiler": {
    "name": "solc",
    "version": "0.4.24+commit.e67f0147.Emscripten.clang"
  },
  "schemaVersion": "2.0.1",
  "updatedAt": "2018-08-13T07:43:39.916Z"
}