{
  "contractName": "LockboxFactory",
  "abi": [
    {
      "constant": true,
      "inputs": [
        {
          "name": "",
          "type": "uint256"
        }
      ],
      "name": "lockboxes",
      "outputs": [
        {
          "name": "shared_secret",
          "type": "string"
        },
        {
          "name": "valid_until",
          "type": "uint64"
        }
      ],
      "payable": false,
      "stateMutability": "view",
      "type": "function"
    },
    {
      "anonymous": false,
      "inputs": [
        {
          "indexed": false,
          "name": "valid_until",
          "type": "uint256"
        }
      ],
      "name": "ExpiredSharedSecret",
      "type": "event"
    },
    {
      "constant": false,
      "inputs": [
        {
          "name": "_shared_secret",
          "type": "string"
        }
      ],
      "name": "assign_shared_secret",
      "outputs": [],
      "payable": false,
      "stateMutability": "nonpayable",
      "type": "function"
    },
    {
      "constant": false,
      "inputs": [
        {
          "name": "_address",
          "type": "address"
        }
      ],
      "name": "get_shared_secret",
      "outputs": [
        {
          "name": "",
          "type": "string"
        }
      ],
      "payable": false,
      "stateMutability": "nonpayable",
      "type": "function"
    },
    {
      "constant": true,
      "inputs": [
        {
          "name": "_address",
          "type": "address"
        }
      ],
      "name": "get_validity_period",
      "outputs": [
        {
          "name": "",
          "type": "address"
        }
      ],
      "payable": false,
      "stateMutability": "view",
      "type": "function"
    }
  ],
  "bytecode": "0x60806040526202a30060015534801561001757600080fd5b50610778806100276000396000f300608060405260043610610062576000357c0100000000000000000000000000000000000000000000000000000000900463ffffffff168063552be6dc146100675780635c4893ec146100a257806377311d0014610125578063f7e99d48146101e6575b600080fd5b34801561007357600080fd5b506100a06004803603810190808035906020019082018035906020019190919293919293905050506102a2565b005b3480156100ae57600080fd5b506100e3600480360381019080803573ffffffffffffffffffffffffffffffffffffffff1690602001909291905050506103be565b604051808273ffffffffffffffffffffffffffffffffffffffff1673ffffffffffffffffffffffffffffffffffffffff16815260200191505060405180910390f35b34801561013157600080fd5b50610150600480360381019080803590602001909291905050506103c8565b60405180806020018367ffffffffffffffff1667ffffffffffffffff168152602001828103825284818151815260200191508051906020019080838360005b838110156101aa57808201518184015260208101905061018f565b50505050905090810190601f1680156101d75780820380516001836020036101000a031916815260200191505b50935050505060405180910390f35b3480156101f257600080fd5b50610227600480360381019080803573ffffffffffffffffffffffffffffffffffffffff1690602001909291905050506104a7565b6040518080602001828103825283818151815260200191508051906020019080838360005b8381101561026757808201518184015260208101905061024c565b50505050905090810190601f1680156102945780820380516001836020036101000a031916815260200191505b509250505060405180910390f35b600080604080519081016040528085858080601f0160208091040260200160405190810160405280939291908181526020018383808284378201915050505050508152602001600154420167ffffffffffffffff168152509080600181540180825580915050906001820390600052602060002090600202016000909192909190915060008201518160000190805190602001906103419291906106a7565b5060208201518160010160006101000a81548167ffffffffffffffff021916908367ffffffffffffffff1602179055505050905080600260003373ffffffffffffffffffffffffffffffffffffffff1673ffffffffffffffffffffffffffffffffffffffff16815260200190815260200160002081905550505050565b6000819050919050565b6000818154811015156103d757fe5b9060005260206000209060020201600091509050806000018054600181600116156101000203166002900480601f0160208091040260200160405190810160405280929190818152602001828054600181600116156101000203166002900480156104835780601f1061045857610100808354040283529160200191610483565b820191906000526020600020905b81548152906001019060200180831161046657829003601f168201915b5050505050908060010160009054906101000a900467ffffffffffffffff16905082565b60606000600260008473ffffffffffffffffffffffffffffffffffffffff1673ffffffffffffffffffffffffffffffffffffffff168152602001908152602001600020549050426000828154811015156104fd57fe5b906000526020600020906002020160010160009054906101000a900467ffffffffffffffff1667ffffffffffffffff1610156105e5577f4ad22cbddad2339334ab4b18152bcbf1bdbb19637ea99c18408e5c6a0bb6156e60008281548110151561056357fe5b906000526020600020906002020160010160009054906101000a900467ffffffffffffffff16604051808267ffffffffffffffff16815260200191505060405180910390a16040805190810160405280600781526020017f494e56414c49440000000000000000000000000000000000000000000000000081525091506106a1565b6000818154811015156105f457fe5b90600052602060002090600202016000018054600181600116156101000203166002900480601f0160208091040260200160405190810160405280929190818152602001828054600181600116156101000203166002900480156106995780601f1061066e57610100808354040283529160200191610699565b820191906000526020600020905b81548152906001019060200180831161067c57829003601f168201915b505050505091505b50919050565b828054600181600116156101000203166002900490600052602060002090601f016020900481019282601f106106e857805160ff1916838001178555610716565b82800160010185558215610716579182015b828111156107155782518255916020019190600101906106fa565b5b5090506107239190610727565b5090565b61074991905b8082111561074557600081600090555060010161072d565b5090565b905600a165627a7a72305820e44c19c4ea35f8acec3ffaa80cb40f3382724acb794eab8416d04bd6c68faea30029",
  "source": "pragma solidity ^0.4.24;\n\ncontract LockboxFactory {\n  event ExpiredSharedSecret(uint valid_until);\n\n  struct Lockbox {\n    string shared_secret;\n    uint64 valid_until;\n  }\n\n  Lockbox[] public lockboxes;\n  uint validity_period = 2 days;\n  mapping ( address => uint256 ) address_to_lockbox_id;\n\n  function assign_shared_secret(string _shared_secret) external {\n    uint256 id = lockboxes.push(Lockbox(_shared_secret, uint64(now + validity_period)));\n\n    address_to_lockbox_id[msg.sender] = id;\n  }\n\n  function get_shared_secret(address _address) external returns(string) {\n    uint256 id = address_to_lockbox_id[_address];\n    if (lockboxes[id].valid_until < now) {\n      emit ExpiredSharedSecret(lockboxes[id].valid_until);\n      return 'INVALID';\n    }\n\n    return lockboxes[id].shared_secret;\n  }\n\n  function get_validity_period(address _address) external view returns(address) {\n    //return lockboxes[address_to_lockbox_id[_address]].valid_until;\n    return _address;\n  }\n}",
  "sourcePath": "/Users/gbudiman/Documents/lockbox/contracts/LockboxFactory.sol",
  "compiler": {
    "name": "solc",
    "version": "0.4.24+commit.e67f0147.Emscripten.clang"
  },
  "schemaVersion": "2.0.1",
  "updatedAt": "2018-08-13T23:34:53.692Z"
}