{
  "contractName": "LockboxFactory",
  "abi": [
    {
      "constant": true,
      "inputs": [
        {
          "name": "",
          "type": "uint256"
        }
      ],
      "name": "lockboxes",
      "outputs": [
        {
          "name": "shared_secret",
          "type": "string"
        },
        {
          "name": "valid_until",
          "type": "uint64"
        }
      ],
      "payable": false,
      "stateMutability": "view",
      "type": "function"
    },
    {
      "anonymous": false,
      "inputs": [
        {
          "indexed": false,
          "name": "valid_until",
          "type": "uint256"
        }
      ],
      "name": "ExpiredSharedSecret",
      "type": "event"
    },
    {
      "constant": false,
      "inputs": [
        {
          "name": "_shared_secret",
          "type": "string"
        }
      ],
      "name": "assign_shared_secret",
      "outputs": [],
      "payable": false,
      "stateMutability": "nonpayable",
      "type": "function"
    },
    {
      "constant": false,
      "inputs": [
        {
          "name": "_address",
          "type": "address"
        }
      ],
      "name": "get_shared_secret",
      "outputs": [
        {
          "name": "",
          "type": "string"
        }
      ],
      "payable": false,
      "stateMutability": "nonpayable",
      "type": "function"
    },
    {
      "constant": true,
      "inputs": [
        {
          "name": "_address",
          "type": "address"
        }
      ],
      "name": "get_validity_period",
      "outputs": [
        {
          "name": "",
          "type": "uint64"
        }
      ],
      "payable": false,
      "stateMutability": "view",
      "type": "function"
    },
    {
      "constant": false,
      "inputs": [
        {
          "name": "_address",
          "type": "address"
        }
      ],
      "name": "set_admin",
      "outputs": [],
      "payable": false,
      "stateMutability": "nonpayable",
      "type": "function"
    },
    {
      "constant": true,
      "inputs": [],
      "name": "get_admin",
      "outputs": [
        {
          "name": "",
          "type": "address"
        }
      ],
      "payable": false,
      "stateMutability": "view",
      "type": "function"
    }
  ],
  "bytecode": "0x60806040526000600160006101000a81548173ffffffffffffffffffffffffffffffffffffffff021916908373ffffffffffffffffffffffffffffffffffffffff1602179055506202a30060025534801561005957600080fd5b5061093a806100696000396000f300608060405260043610610078576000357c0100000000000000000000000000000000000000000000000000000000900463ffffffff16806354c7c6121461007d578063552be6dc146100d45780635c4893ec1461010f57806377311d001461017a578063e9333fab1461023b578063f7e99d481461027e575b600080fd5b34801561008957600080fd5b5061009261033a565b604051808273ffffffffffffffffffffffffffffffffffffffff1673ffffffffffffffffffffffffffffffffffffffff16815260200191505060405180910390f35b3480156100e057600080fd5b5061010d600480360381019080803590602001908201803590602001919091929391929390505050610364565b005b34801561011b57600080fd5b50610150600480360381019080803573ffffffffffffffffffffffffffffffffffffffff169060200190929190505050610483565b604051808267ffffffffffffffff1667ffffffffffffffff16815260200191505060405180910390f35b34801561018657600080fd5b506101a5600480360381019080803590602001909291905050506104ff565b60405180806020018367ffffffffffffffff1667ffffffffffffffff168152602001828103825284818151815260200191508051906020019080838360005b838110156101ff5780820151818401526020810190506101e4565b50505050905090810190601f16801561022c5780820380516001836020036101000a031916815260200191505b50935050505060405180910390f35b34801561024757600080fd5b5061027c600480360381019080803573ffffffffffffffffffffffffffffffffffffffff1690602001909291905050506105de565b005b34801561028a57600080fd5b506102bf600480360381019080803573ffffffffffffffffffffffffffffffffffffffff169060200190929190505050610669565b6040518080602001828103825283818151815260200191508051906020019080838360005b838110156102ff5780820151818401526020810190506102e4565b50505050905090810190601f16801561032c5780820380516001836020036101000a031916815260200191505b509250505060405180910390f35b6000600160009054906101000a900473ffffffffffffffffffffffffffffffffffffffff16905090565b600080604080519081016040528085858080601f0160208091040260200160405190810160405280939291908181526020018383808284378201915050505050508152602001600254420167ffffffffffffffff16815250908060018154018082558091505090600182039060005260206000209060020201600090919290919091506000820151816000019080519060200190610403929190610869565b5060208201518160010160006101000a81548167ffffffffffffffff021916908367ffffffffffffffff1602179055505050905060018103600360003373ffffffffffffffffffffffffffffffffffffffff1673ffffffffffffffffffffffffffffffffffffffff16815260200190815260200160002081905550505050565b600080600360008473ffffffffffffffffffffffffffffffffffffffff1673ffffffffffffffffffffffffffffffffffffffff168152602001908152602001600020548154811015156104d257fe5b906000526020600020906002020160010160009054906101000a900467ffffffffffffffff169050919050565b60008181548110151561050e57fe5b9060005260206000209060020201600091509050806000018054600181600116156101000203166002900480601f0160208091040260200160405190810160405280929190818152602001828054600181600116156101000203166002900480156105ba5780601f1061058f576101008083540402835291602001916105ba565b820191906000526020600020905b81548152906001019060200180831161059d57829003601f168201915b5050505050908060010160009054906101000a900467ffffffffffffffff16905082565b6000600160009054906101000a900473ffffffffffffffffffffffffffffffffffffffff1673ffffffffffffffffffffffffffffffffffffffff1614151561062557600080fd5b80600160006101000a81548173ffffffffffffffffffffffffffffffffffffffff021916908373ffffffffffffffffffffffffffffffffffffffff16021790555050565b60606000600360008473ffffffffffffffffffffffffffffffffffffffff1673ffffffffffffffffffffffffffffffffffffffff168152602001908152602001600020549050426000828154811015156106bf57fe5b906000526020600020906002020160010160009054906101000a900467ffffffffffffffff1667ffffffffffffffff1610156107a7577f4ad22cbddad2339334ab4b18152bcbf1bdbb19637ea99c18408e5c6a0bb6156e60008281548110151561072557fe5b906000526020600020906002020160010160009054906101000a900467ffffffffffffffff16604051808267ffffffffffffffff16815260200191505060405180910390a16040805190810160405280600781526020017f494e56414c4944000000000000000000000000000000000000000000000000008152509150610863565b6000818154811015156107b657fe5b90600052602060002090600202016000018054600181600116156101000203166002900480601f01602080910402602001604051908101604052809291908181526020018280546001816001161561010002031660029004801561085b5780601f106108305761010080835404028352916020019161085b565b820191906000526020600020905b81548152906001019060200180831161083e57829003601f168201915b505050505091505b50919050565b828054600181600116156101000203166002900490600052602060002090601f016020900481019282601f106108aa57805160ff19168380011785556108d8565b828001600101855582156108d8579182015b828111156108d75782518255916020019190600101906108bc565b5b5090506108e591906108e9565b5090565b61090b91905b808211156109075760008160009055506001016108ef565b5090565b905600a165627a7a7230582048b71f70aa9146a195f9482baf4713d94aa70b2094ac72f379b73179ce2c22940029",
  "source": "pragma solidity ^0.4.24;\n\ncontract LockboxFactory {\n  event ExpiredSharedSecret(uint valid_until);\n\n  struct Lockbox {\n    string shared_secret;\n    uint64 valid_until;\n  }\n\n  Lockbox[] public lockboxes;\n  address admin_address = 0;\n  uint validity_period = 2 days;\n  mapping ( address => uint256 ) address_to_lockbox_id;\n\n  function assign_shared_secret(string _shared_secret) external {\n    uint256 id = lockboxes.push(Lockbox(_shared_secret, uint64(now + validity_period)));\n\n    address_to_lockbox_id[msg.sender] = id - 1;\n  }\n\n  function get_shared_secret(address _address) external returns(string) {\n    uint256 id = address_to_lockbox_id[_address];\n    if (lockboxes[id].valid_until < now) {\n      emit ExpiredSharedSecret(lockboxes[id].valid_until);\n      return 'INVALID';\n    }\n\n    return lockboxes[id].shared_secret;\n  }\n\n  function get_validity_period(address _address) external view returns(uint64) {\n    return lockboxes[address_to_lockbox_id[_address]].valid_until;\n  }\n\n  function set_admin(address _address) external {\n    require(admin_address == 0);\n    admin_address = _address;\n  }\n\n  function get_admin() external view returns(address) {\n    return admin_address;\n  }\n}",
  "sourcePath": "/Users/gbudiman/Documents/lockbox/contracts/LockboxFactory.sol",
  "compiler": {
    "name": "solc",
    "version": "0.4.24+commit.e67f0147.Emscripten.clang"
  },
  "schemaVersion": "2.0.1",
  "updatedAt": "2018-08-14T00:20:12.563Z"
}